{"abi":[{"type":"function","name":"attestationDigest","inputs":[{"name":"bountyId","type":"uint256","internalType":"uint256"},{"name":"submissionId","type":"uint256","internalType":"uint256"},{"name":"claimant","type":"address","internalType":"address"},{"name":"artifactHash","type":"bytes32","internalType":"bytes32"}],"outputs":[{"name":"","type":"bytes32","internalType":"bytes32"}],"stateMutability":"view"},{"type":"function","name":"awardBounty","inputs":[{"name":"bountyId","type":"uint256","internalType":"uint256"},{"name":"submissionId","type":"uint256","internalType":"uint256"}],"outputs":[],"stateMutability":"nonpayable"},{"type":"function","name":"bounties","inputs":[{"name":"","type":"uint256","internalType":"uint256"}],"outputs":[{"name":"creator","type":"address","internalType":"address"},{"name":"deadline","type":"uint64","internalType":"uint64"},{"name":"status","type":"uint8","internalType":"enum Bounty402.BountyStatus"},{"name":"token","type":"address","internalType":"contract IERC20"},{"name":"reward","type":"uint256","internalType":"uint256"},{"name":"specHash","type":"bytes32","internalType":"bytes32"},{"name":"winningSubmissionId","type":"uint256","internalType":"uint256"},{"name":"validator","type":"address","internalType":"address"}],"stateMutability":"view"},{"type":"function","name":"bountyCount","inputs":[],"outputs":[{"name":"","type":"uint256","internalType":"uint256"}],"stateMutability":"view"},{"type":"function","name":"cancelBounty","inputs":[{"name":"bountyId","type":"uint256","internalType":"uint256"}],"outputs":[],"stateMutability":"nonpayable"},{"type":"function","name":"claim","inputs":[{"name":"bountyId","type":"uint256","internalType":"uint256"}],"outputs":[],"stateMutability":"nonpayable"},{"type":"function","name":"claimWithAttestation","inputs":[{"name":"bountyId","type":"uint256","internalType":"uint256"},{"name":"submissionId","type":"uint256","internalType":"uint256"},{"name":"signature","type":"bytes","internalType":"bytes"}],"outputs":[],"stateMutability":"nonpayable"},{"type":"function","name":"createBounty","inputs":[{"name":"token","type":"address","internalType":"contract IERC20"},{"name":"reward","type":"uint256","internalType":"uint256"},{"name":"deadline","type":"uint64","internalType":"uint64"},{"name":"specHash","type":"bytes32","internalType":"bytes32"}],"outputs":[{"name":"bountyId","type":"uint256","internalType":"uint256"}],"stateMutability":"nonpayable"},{"type":"function","name":"createBountyWithValidator","inputs":[{"name":"token","type":"address","internalType":"contract IERC20"},{"name":"reward","type":"uint256","internalType":"uint256"},{"name":"deadline","type":"uint64","internalType":"uint64"},{"name":"specHash","type":"bytes32","internalType":"bytes32"},{"name":"validator","type":"address","internalType":"address"}],"outputs":[{"name":"bountyId","type":"uint256","internalType":"uint256"}],"stateMutability":"nonpayable"},{"type":"function","name":"getWinner","inputs":[{"name":"bountyId","type":"uint256","internalType":"uint256"}],"outputs":[{"name":"winner","type":"address","internalType":"address"},{"name":"submissionId","type":"uint256","internalType":"uint256"}],"stateMutability":"view"},{"type":"function","name":"submissionCount","inputs":[{"name":"","type":"uint256","internalType":"uint256"}],"outputs":[{"name":"","type":"uint256","internalType":"uint256"}],"stateMutability":"view"},{"type":"function","name":"submissions","inputs":[{"name":"","type":"uint256","internalType":"uint256"},{"name":"","type":"uint256","internalType":"uint256"}],"outputs":[{"name":"submitter","type":"address","internalType":"address"},{"name":"submittedAt","type":"uint64","internalType":"uint64"},{"name":"artifactHash","type":"bytes32","internalType":"bytes32"},{"name":"uri","type":"string","internalType":"string"}],"stateMutability":"view"},{"type":"function","name":"submitWork","inputs":[{"name":"bountyId","type":"uint256","internalType":"uint256"},{"name":"artifactHash","type":"bytes32","internalType":"bytes32"},{"name":"uri","type":"string","internalType":"string"}],"outputs":[{"name":"submissionId","type":"uint256","internalType":"uint256"}],"stateMutability":"nonpayable"},{"type":"event","name":"BountyAwarded","inputs":[{"name":"bountyId","type":"uint256","indexed":true,"internalType":"uint256"},{"name":"submissionId","type":"uint256","indexed":true,"internalType":"uint256"},{"name":"winner","type":"address","indexed":true,"internalType":"address"}],"anonymous":false},{"type":"event","name":"BountyCancelled","inputs":[{"name":"bountyId","type":"uint256","indexed":true,"internalType":"uint256"}],"anonymous":false},{"type":"event","name":"BountyCreated","inputs":[{"name":"bountyId","type":"uint256","indexed":true,"internalType":"uint256"},{"name":"creator","type":"address","indexed":true,"internalType":"address"},{"name":"token","type":"address","indexed":true,"internalType":"address"},{"name":"reward","type":"uint256","indexed":false,"internalType":"uint256"},{"name":"deadline","type":"uint64","indexed":false,"internalType":"uint64"},{"name":"specHash","type":"bytes32","indexed":false,"internalType":"bytes32"}],"anonymous":false},{"type":"event","name":"BountyPaid","inputs":[{"name":"bountyId","type":"uint256","indexed":true,"internalType":"uint256"},{"name":"winner","type":"address","indexed":true,"internalType":"address"},{"name":"amount","type":"uint256","indexed":false,"internalType":"uint256"}],"anonymous":false},{"type":"event","name":"SubmissionCreated","inputs":[{"name":"bountyId","type":"uint256","indexed":true,"internalType":"uint256"},{"name":"submissionId","type":"uint256","indexed":true,"internalType":"uint256"},{"name":"submitter","type":"address","indexed":true,"internalType":"address"},{"name":"artifactHash","type":"bytes32","indexed":false,"internalType":"bytes32"},{"name":"uri","type":"string","indexed":false,"internalType":"string"}],"anonymous":false},{"type":"error","name":"AlreadyFinal","inputs":[]},{"type":"error","name":"DeadlinePassed","inputs":[]},{"type":"error","name":"InvalidAttestation","inputs":[]},{"type":"error","name":"InvalidDeadline","inputs":[]},{"type":"error","name":"InvalidReward","inputs":[]},{"type":"error","name":"InvalidSpec","inputs":[]},{"type":"error","name":"InvalidSubmission","inputs":[]},{"type":"error","name":"InvalidValidator","inputs":[]},{"type":"error","name":"NotCreator","inputs":[]},{"type":"error","name":"NotOpen","inputs":[]},{"type":"error","name":"NotSubmitter","inputs":[]},{"type":"error","name":"NotWinner","inputs":[]}],"bytecode":{"object":"0x6080806040523460195760015f55611565908161001e8239f35b5f80fdfe60806040526004361015610011575f80fd5b5f3560e01c80631ad2d2ac14610ddb5780632312cbf614610db1578063379607f514610c5d5780633e362c9614610c405780634129b2c914610c07578063620fae501461086f57806369c1fc25146107e25780636a663fe2146105d257806371a569e6146104c6578063dc2f874414610423578063dc56696a146103e2578063e5e5dff1146102fb5763e92609fa146100a8575f80fd5b346102f75760a03660031901126102f7576100c1610f0c565b6024356100cc610f22565b91606435916084356001600160a01b038116908190036102f7576100f360015f54146110ab565b60025f5580156102e85781156102d95783156102ca576001600160401b03851692428411156102bb576101276001546110e3565b9485600155610138843033856112c2565b6040519661014588610fb3565b3388526020880195865260408801975f8952606081019360018060a01b031696878552608082019587875260a083019a858c526101f26001600160401b0360c08601945f865260e087019485528d5f52600260205260405f209660018060a01b039060018060a01b03905116166bffffffffffffffffffffffff60a01b885416178755511685908154906001600160401b0360a01b9060a01b16906001600160401b0360a01b1916179055565b519160048310156102a75760209b8b987fa0df6613dd19f3905b8334206c81fba536fa5a7668819f2d3cbcec7fddcd63449861023060059688611111565b516001870180546001600160a01b03199081166001600160a01b039384161790915591516002880155915160038701559151600486015591519290930180549093169116179055604080519586526001600160401b039091166020860152840152339280606081010390a460015f55604051908152f35b634e487b7160e01b5f52602160045260245ffd5b631da7447960e21b5f5260045ffd5b639f85411f60e01b5f5260045ffd5b6314414f4160e11b5f5260045ffd5b631a0a9b9f60e21b5f5260045ffd5b5f80fd5b346102f75760203660031901126102f75760043561031c60015f54146110ab565b60025f55805f52600260205260405f20805460018060a01b03811680156103d35733036103c45760e01c60ff1660048110156102a7576103b557805460ff60e01b198116600160e11b178255600182015460029092015461038b9290916001600160a01b03908116911661139a565b7f92717314c0b0f9d632e1d46a0b8437778ff9daee1db8ec295f2bc0b57c4bcaac5f80a260015f55005b6312c14c4360e31b5f5260045ffd5b6393687c0b60e01b5f5260045ffd5b633e55b3b960e21b5f5260045ffd5b346102f75760803660031901126102f7576044356001600160a01b03811681036102f75761041b6020916064359060243560043561120e565b604051908152f35b346102f75760203660031901126102f7576004355f52600260205260405f20805460ff8160e01c169160018060a01b03600182015416906002810154600382015490600483015492600560018060a01b0391015416936001600160401b036040519660018060a01b038116885260a01c16602087015260048710156102a7576101009660408701526060860152608085015260a084015260c083015260e0820152f35b346102f7576104d436610f65565b5f82815260026020526040902080546001600160a01b03811680156103d35733036103c45760e01c60ff1660048110156102a7576103b557811580156105bd575b6103d357825f52600460205260405f20825f5260205281600460405f209261057460026040519561054587610fcf565b80546001600160a01b038116885260a01c6001600160401b03166020880152600181015460408801520161100b565b6060850152805460ff60e01b1916600160e01b1781550155516001600160a01b0316917f3a118d662a9946b3181b0ac0632bce0869c81aa691bcec5cf773864cd5a4f0fc5f80a4005b50825f52600360205260405f20548211610515565b346102f75760603660031901126102f7576004356024356044356001600160401b0381116102f757610608903690600401610f38565b919061061760015f54146110ab565b60025f55835f52600260205260405f2092835460018060a01b038116156103d35760e01c60ff1660048110156102a7576103b557821580156107cd575b6103d357845f52600460205260405f20835f5260205260405f209160405161067b81610fcf565b83546001600160a01b038116825260a01c6001600160401b03166020820152600184015460408201908152936106b39060020161100b565b6060820152516001600160a01b031633036107be576106d861071f935133868961120e565b60405160208101917f19457468657265756d205369676e6564204d6573736167653a0a3332000000008352603c820152603c8152610717605c82610fea565b519020611464565b60058301546001600160a01b03169081156102e8576001600160a01b0316036107af57815460ff60e01b1916600360e01b1782556004820155600181015460029091018054909161077b919033906001600160a01b031661139a565b54906040519182527f07e339a02227d9329089b11d9cdeea1af6caea87244864b70935aca91d7dc7fd60203393a360015f55005b63bd8ba84d60e01b5f5260045ffd5b6331511a2160e21b5f5260045ffd5b50845f52600360205260405f20548311610654565b346102f7576107f036610f65565b905f52600460205260405f20905f526020526001600160401b0360a060405f20602081549161082660026001830154920161100b565b90604051958694600180881b0381168652861c16838501526040840152608060608401528051918291826080860152018484015e5f828201840152601f01601f19168101030190f35b346102f75760603660031901126102f7576004356024356044356001600160401b0381116102f7576108a5903690600401610f38565b90835f52600260205260405f206040516108be81610fb3565b81546001600160a01b038116825260a081901c6001600160401b031660208301908152926040830192916108f89060e01c60ff1684611105565b60018101546001600160a01b03908116606084015260028201546080840152600382015460a0840152600482015460c0840152600590910154811660e0830152905116156103d3575160048110156102a757610bf857516001600160401b03164211610be95782156103d357835f52600360205260405f209261097b84546110e3565b8094556040519161098b83610fcf565b338352602083016001600160401b034216815260408401938385526109af866111f3565b946109bd6040519687610fea565b86865236878501116102f757610a3b6001600160401b03600294898760208b01375f898b016020908101829052606087019a8b528d82526004815260408083208e845290915290209451855491516001600160e01b03199092166001600160a01b039190911617911660a01b67ffffffffffffffff60a01b16178355565b5160018201550192519283516001600160401b038111610bd557610a5f8254610f7b565b601f8111610b90575b506020979287949287928a97601f8211600114610b04577fce8176fc57a9715b04a6a56007f96cb290d4e9bc17243f87d90150b752e06c0296979882915f92610af9575b50508160011b915f199060031b1c19161790555b60405192835260408984015281604084015260608301375f606086830101526060813396601f80199101168101030190a4604051908152f35b015190508c80610aac565b9097601f19891691835f52815f20925f5b818110610b73575091600193918b7fce8176fc57a9715b04a6a56007f96cb290d4e9bc17243f87d90150b752e06c029a9b9c9410610b5b575b505050811b019055610ac0565b01515f1960f88460031b161c191690558c8080610b4e565b8284015185558d9a508c9750600190940193928e01928e01610b15565b825f5260205f20601f830160051c81019160208410610bcb575b601f0160051c01905b818110610bc05750610a68565b5f8155600101610bb3565b9091508190610baa565b634e487b7160e01b5f52604160045260245ffd5b63387b2e5560e11b5f5260045ffd5b631bb5f5b360e31b5f5260045ffd5b346102f75760203660031901126102f757610c23600435611135565b604080516001600160a01b03939093168352602083019190915290f35b346102f7575f3660031901126102f7576020600154604051908152f35b346102f75760203660031901126102f757600435610c7e60015f54146110ab565b60025f55805f52600260205260405f2090815460018060a01b038116156103d35760e01c60ff1660048110156102a757600103610bf857805f52600460205260405f2060048301545f5260205260405f20610d10600260405192610ce184610fcf565b80546001600160a01b038116855260a01c6001600160401b03166020850152600181015460408501520161100b565b606082015280516001600160a01b03163303610da257825460ff60e01b1916600360e01b178355600183015481516002909401805490947f07e339a02227d9329089b11d9cdeea1af6caea87244864b70935aca91d7dc7fd936020939092610d869290916001600160a01b03918216911661139a565b5193546040519081526001600160a01b0390941693a360015f55005b6330c6392160e11b5f5260045ffd5b346102f75760203660031901126102f7576004355f526003602052602060405f2054604051908152f35b346102f75760803660031901126102f757610df4610f0c565b60243590610e00610f22565b9160643590610e1260015f54146110ab565b60025f5580156102d95781156102ca576001600160401b03841693428511156102bb57610e406001546110e3565b9384600155610e51833033846112c2565b60405193610e5e85610fb3565b3385526020850196875260408501925f8452606086019260018060a01b031695868452608081019486865260a0820199848b5260c08301915f83526101f26001600160401b0360e08601935f85528d5f52600260205260405f209660018060a01b039060018060a01b03905116166bffffffffffffffffffffffff60a01b885416178755511685908154906001600160401b0360a01b9060a01b16906001600160401b0360a01b1916179055565b600435906001600160a01b03821682036102f757565b604435906001600160401b03821682036102f757565b9181601f840112156102f7578235916001600160401b0383116102f757602083818601950101116102f757565b60409060031901126102f7576004359060243590565b90600182811c92168015610fa9575b6020831014610f9557565b634e487b7160e01b5f52602260045260245ffd5b91607f1691610f8a565b61010081019081106001600160401b03821117610bd557604052565b608081019081106001600160401b03821117610bd557604052565b90601f801991011681019081106001600160401b03821117610bd557604052565b9060405191825f82549261101e84610f7b565b80845293600181169081156110895750600114611045575b5061104392500383610fea565b565b90505f9291925260205f20905f915b81831061106d575050906020611043928201015f611036565b6020919350806001915483858901015201910190918492611054565b90506020925061104394915060ff191682840152151560051b8201015f611036565b156110b257565b60405162461bcd60e51b815260206004820152600960248201526814915153951490539560ba1b6044820152606490fd5b5f1981146110f15760010190565b634e487b7160e01b5f52601160045260245ffd5b60048210156102a75752565b9060048110156102a757815460ff60e01b191660e09190911b60ff60e01b16179055565b805f52600260205260405f209060405161114e81610fb3565b82546001600160a01b038116825260a081901c6001600160401b031660208301526111829060e01c60ff1660408301611105565b60018301546001600160a01b03908116606083015260028401546080830152600384015460a0830152600484015460c083018190526005909401541660e09091015281156111eb575f52600460205260405f20815f5260205260018060a01b0360405f20541691565b50505f905f90565b6001600160401b038111610bd557601f01601f191660200190565b9290916040519260208401947fc8cbaade7e716c7afed9012ef616d5484c17df6dd5e0848b2ec72699e2da0c4f8652466040860152306060860152608085015260a084015260018060a01b031660c083015260e082015260e0815261127561010082610fea565b51902090565b3d156112a5573d9061128c826111f3565b9161129a6040519384610fea565b82523d5f602084013e565b606090565b908160209103126102f7575180151581036102f75790565b6040516323b872dd60e01b602082019081526001600160a01b0393841660248301529390921660448301526064808301949094529281525f9283929091839061130c608482610fea565b51926001600160a01b03165af161132161127b565b8161136b575b501561132f57565b60405162461bcd60e51b81526020600482015260146024820152731514905394d1915497d19493d357d1905253115160621b6044820152606490fd5b8051801592508215611380575b50505f611327565b61139392506020809183010191016112aa565b5f80611378565b60405163a9059cbb60e01b602082019081526001600160a01b039390931660248201526044808201949094529283525f9283929083906113db606482610fea565b51926001600160a01b03165af16113f061127b565b81611435575b50156113fe57565b60405162461bcd60e51b815260206004820152600f60248201526e1514905394d1915497d19052531151608a1b6044820152606490fd5b805180159250821561144a575b50505f6113f6565b61145d92506020809183010191016112aa565b5f80611442565b91604019016115295760208101359160408201355f1a601b8110611509575b7f7fffffffffffffffffffffffffffffff5d576e7357a4501ddfe92f46681b20a084116114f65760ff1690601b821415806114fe575b6114f6576020935f9360809360405193845286840152356040830152606082015282805260015afa156114eb575f5190565b6040513d5f823e3d90fd5b505050505f90565b50601c8214156114b9565b601b0160ff81111561148357634e487b7160e01b5f52601160045260245ffd5b50505f9056fea2646970667358221220a2d68c97bcd9a3c453d2ccc643fa9b0517732d269b1dd379deb708675fddc84864736f6c634300081e0033","linkReferences":{}},"methodIdentifiers":{"attestationDigest(uint256,uint256,address,bytes32)":"dc56696a","awardBounty(uint256,uint256)":"71a569e6","bounties(uint256)":"dc2f8744","bountyCount()":"3e362c96","cancelBounty(uint256)":"e5e5dff1","claim(uint256)":"379607f5","claimWithAttestation(uint256,uint256,bytes)":"6a663fe2","createBounty(address,uint256,uint64,bytes32)":"1ad2d2ac","createBountyWithValidator(address,uint256,uint64,bytes32,address)":"e92609fa","getWinner(uint256)":"4129b2c9","submissionCount(uint256)":"2312cbf6","submissions(uint256,uint256)":"69c1fc25","submitWork(uint256,bytes32,string)":"620fae50"},"id":23}